:030000000200CB30
:0C00CB00787FE4F6D8FD75810802005D26
:0600AB001200B175B0FD6A
:0C00B100E4FFE4FE0EBEFAFC0FBFFAF6FE
:0100BD002220
:0C00BE00E4FFE4FE0EBE3CFC0FBF64F645
:0100CA002213
:1000030075B0FE1200AB75B0FB1200B175B0F712FC
:1000130000B175B0EF1200B175B0DF1200B175B069
:10002300BF1200B175B07F1200B175B0FE0200B10E
:1000330075B07F1200B175B0BF1200B175B0DF1299
:1000430000B175B0EF1200B175B0F71200B175B021
:0A005300FB1200AB75B0FE0200B115
:0400E30075B0FF22D3
:0C00D70075B0FF1200B1E4F5B00200B1FA
:10008700E59054F064F0601B1200BE2094037508DD
:10009700012095037508022096037508032097032E
:0400A70075080422B2
:10005D00E4F508120087E50824FE600F1460111402
:10006D006013240370ED12000380E812003380E367
:0A007D001200E380DE1200D780D9E4
:00000001FF
