:0300000002019961
:0C019900787FE4F6D8FD7581200200316B
:0B01A500303132333435363738390042
:0C017F00E4FFE4FE0EBE21FC0FBF0AF6F8
:01018B002251
:02016000AD07E9
:0D016200E4FCECC39D500612017F0C80F5FB
:01016F00226D
:10010E00C2A0D2A1D2A200000000A2879200C2A279
:05011E00A200E433FF24
:0101230022B9
:07005B007F051201607F38F0
:10006200AE0712010EEF640160F8C2A0C2A1C2A2E3
:1000720000008E8000000000D2A200000000C2A298
:01008200225B
:0701B000EF4480FF02006232
:1000EF00AE0712010EEF640160F8D2A0C2A1C2A246
:0F00FF008E8000000000D2A200000000C2A222EA
:100003007F0F12005D12005B12005B7F051201601F
:100013007F0C1200627F051201607F061200627F6F
:0E002300051201607F011200627F050201607C
:1000CE00EF75F00A84FDEF75F00A84ACF07F4412F0
:1000DE0001B0ED9001A593FF1200EFEC93FF02002B
:0100EE00EF22
:0F017000D2B3D2B40000C2B400000000C2B32268
:0D018C00C2B40000D2B300000000D2B422C3
:10012400E4FED2B3EF25E0FFA2B4E4334207C2B346
:040134000EBE08EE05
:0101380022A4
:10008300E4FEEF3392B400D2B30000C2B3EF25E035
:10009300FF0EBE08EDD2B40000D2B300000000A2F0
:0700A300B49200C2B3A200F9
:0100AA002233
:1000AB00AC071201707FA01200834016AF04120040
:1000BB0083400FAF05120083400812018C7F04129E
:0300CB00016022AF
:100139001201707FA112008350037F002212012453
:0301490012018C14
:01014C002290
:10014D00AD071201707FA0120083AF05120083125C
:03015D0001392243
:10003100E4FBFA1200032094107F50120160309407
:10004100FDBB0A04E4FB80010BAD037F011200AB91
:0A0051007F0112014D1200CE80DC89
:00000001FF
