:030000000208B53E
:0C08B500787FE4F6D8FD7581200208A8C9
:0C089B00E4FFE4FE0EBE21FC0FBF0AF6D5
:0108A700222E
:02088B00AD07B7
:0D088D00E4FCECC39D500612089B0C80F5A6
:01089A00223B
:10087500C2A0D2A1D2A200000000A2879200C2A20B
:05088500A200E433FFB6
:01088A00224B
:07082E007F0512088B7F38E3
:10083500AE07120875EF640160F8C2A0C2A1C2A29A
:1008450000008E8000000000D2A200000000C2A2BD
:010855002280
:0708C100EF4480FF0208353F
:10085600AE07120875EF640160F8D2A0C2A1C2A269
:0F0866008E8000000000D2A200000000C2A2227B
:100800007F0F12083012082E12082E7F0512088B57
:100810007F0F1208357F0512088B7F061208357F7F
:0E0820000512088B7F011208357F0502088B38
:0D08A8001208007F071208C17F41020856A8
:00000001FF
