:030000000208CB28
:0C08CB00787FE4F6D8FD75810802085D16
:0608AB001208B175B0FD5A
:0C08B100E4FFE4FE0EBEFAFC0FBFFAF6F6
:0108BD002218
:0C08BE00E4FFE4FE0EBE64FC0FBF64F615
:0108CA00220B
:1008000075B0FE1208AB75B0FB1208B175B0F712E7
:1008100008B175B0EF1208B175B0DF1208B175B04C
:10082000BF1208B175B07F1208B175B0FF75B0FE88
:030830000208B10A
:1008330075B07F1208B175B0BF1208B175B0DF1281
:1008430008B175B0EF1208B175B0F71208B175B001
:0A085300FB1208AB75B0FE0208B1FD
:0408E30075B0FF22CB
:0C08D70075B0FF1208B1E4F5B00208B1E2
:10088700E59054F064F0601B1208BE2094037508CD
:100897000120950375080220960375080320970326
:0408A70075080422AA
:10085D00E4F508120887E50824FE600F14601114F2
:10086D006013240370ED12080080E812083380E352
:0A087D001208E380DE1208D780D9CC
:00000001FF
