:070A0A000008000807040BBF
:060A0300E4FF0FBFC8FC78
:010A090022CA
:0C09EA00E4FFE4FE0EBE3CFC0FBF64F610
:0109F60022DE
:10099E0078107C007D007BFF7A0A790A7E007F0743
:1009AE001208D0D2AFD2A9758901758CFE758A0C4A
:1009BE00D28C7517FFE517B510FBE517B511FBE5E2
:1009CE0017B512FBE517B513FBE517B514FBE517C5
:0B09DE00B515FBE517B516FB75B0FE64
:0109E90022EB
:03000B000208F6F2
:0708F600C0E0C0D075D0087E
:1008FD00C28C7590F0E59054F064F060031209EA33
:10090D00E59054F064F0607C7590FE2094037517AB
:10091D000120950375170220960375170320970381
:10092D007517047590FD20940375170520950375B3
:10093D0017062096037517072097037517087590EE
:10094D00FB20940375170920950375170020960356
:10095D0075170B20970375170C7590F72094037579
:10096D00170D20950375170E20960375170F2097F9
:10097D0003751710E4FEC2B7120A03D2B7120A03A9
:0C098D000EBEC8F2D28C758CFE758A0C70
:05099900D0D0D0E032D7
:030000000209F7FB
:0C09F700787FE4F6D8FD75811702099E98
:10080000E709F608DFFA8046E709F208DFFA803EDA
:1008100088828C83E709F0A3DFFA8032E309F608C7
:10082000DFFA8078E309F208DFFA807088828C832F
:10083000E309F0A3DFFA806489828A83E0A3F608E3
:10084000DFFA805889828A83E0A3F208DFFA804CBD
:1008500080D280FA80C680D4806980F28033801094
:1008600080A680EA809A80A880DA80E280CA8033FD
:1008700089828A83ECFAE493A3C8C582C8CCC58375
:10088000CCF0A3C8C582C8CCC583CCDFE9DEE78045
:100890000D89828A83E493A3F608DFF9ECFAA9F0C4
:1008A000EDFB2289828A83ECFAE0A3C8C582C8CC1A
:1008B000C583CCF0A3C8C582C8CCC583CCDFEADE33
:1008C000E880DB89828A83E493A3F208DFF980CC95
:1008D00088F0EF60010E4E60C388F0ED2402B4048E
:1008E0000050B9F582EB2402B4040050AF23234535
:0608F00082239008507302
:00000001FF
