:03000000020BDC14
:0C0BDC00787FE4F6D8FD7581200208F255
:10080000024B0293024B020B01B8020B01B80188A4
:100810000137018801B8020B01B8020B0310037005
:1008200002930310024B0293024B029303100293B4
:1008300001880137018801B8020B01B801B8020B29
:1008400001B80188011E01370188024B024B0310D9
:100850000370031002BA0293031002930370031093
:100860000293024B029301B8020B024B0293024B1C
:1008700002930310029301880137018801B8020B2B
:1008800001B8020B024B01B8020B024B0293024B60
:1008900001B8020B024B01B8020B024B0293024B50
:1008A0000000040101040101020202020208040224
:1008B000030102020A040202040402020202040208
:1008C0000202020202020A040404020204020404F4
:1008D000040202020202020A0402020404020202E8
:1008E0000206040202040101040A040202040101D6
:0208F000040AF8
:0C0BB500E4FFE4FE0EBEFAFC0FBFFAF6EF
:010BC1002211
:0C0BC200E4FFE4FE0EBE21FC0FBF0AF6AB
:010BCE002204
:020B8700AD07B8
:0D0B8900E4FCECC39D5006120BC20C80F57D
:010B9600223C
:0F0B9700D2B4D2B30000C2B400000000C2B32237
:0D0BCF00C2B40000D2B300000000D2B42276
:100B5F00E4FED2B3EF25E0FFA2B4E4334207C2B301
:040B6F000EBE08EEC0
:010B7300225F
:100B1B00E4FEEF3392B400D2B30000C2B3EF25E092
:100B2B00FF0EBE08EDD2B40000D2B300000000A24D
:070B3B00B49200C2B3A20056
:010B42002290
:100B4300AC07120B977FA0120B1BAF04120B1BAF4A
:0C0B530005120B1B120BCF7F04020B8756
:0E0BA600120B977FA1120B1B120B5F120BCFCD
:010BB400221E
:100B7400AD07120B977FA0120B1BAF05120B1B12B4
:030B84000BA6229B
:1008F200D2AFD2A9E4F589D2B4D2B3E4F510E510AF
:1009020025E02400F582E43408F583E493FE7401C3
:1009120093FF64014E6016EF7803CEC313CE13D853
:10092200F9F511FDAF10120B43051080D18510139C
:10093200E4F510E51025E02400F582E43408F5839F
:100942007401937002E4936013E5132510FFE51020
:100952009008A293FD120B43051080D7E4F510E531
:1009620010C395135060AF10120B748F11E513254D
:1009720010FF120B748F12E51175F008A4AEF0FB94
:10098200AA06E4F9F87F1E7E087D07FC120AAC8EE7
:10099200148F15C3E49515FD74209514FCEDAE0477
:1009A2007805CEC313CE13D8F9F58CED541FF58A12
:1009B200D28CE4FDEDC395125006120BB50D80F4F6
:1009C200C28C05108099D2B7E4F510E510C39408E3
:0C09D20040030208FD120BB5051080EF79
:03000B00020AF0F6
:100AF000C0E0C0D075D008C3E49515FD74209514EE
:100B0000FCEDAE0C7805CEC313CE13D8F9F58CED01
:0B0B1000541FF58AB2B7D0D0D0E032FD
:100AAC00C2D5E830E70FB2D5E4C39BFBE49AFAE475
:100ABC0099F9E498F8EC30E717B2D5120AE2120A69
:100ACC001AE4C39BFBE49AFAE499F9E498F88003DE
:100ADC00120A1A30D50DE4C39FFFE49EFEE49DFD7F
:040AEC00E49CFC2268
:1009DE0075F008758200EF2FFFEE33FECD33CDCCD0
:1009EE0033CCC58233C5829BED9AEC99E582984053
:1009FE000CF582EE9BFEED9AFDEC99FC0FD5F0D630
:100A0E00E4CEFBE4CDFAE4CCF9A88222B800C1B959
:100A1E000059BA002DEC8BF084CFCECDFCE5F0CB97
:100A2E00F97818EF2FFFEE33FEED33FDEC33FCEBD0
:100A3E0033FB10D703994004EB99FB0FD8E5E4F98B
:100A4E00FA227818EF2FFFEE33FEED33FDEC33FC78
:100A5E00C933C910D7059BE99A4007EC9BFCE99A6C
:100A6E00F90FD8E0E4C9FAE4CCFB2275F010EF2FB1
:100A7E00FFEE33FEED33FDCC33CCC833C810D707B1
:100A8E009BEC9AE899400AED9BFDEC9AFCE899F8EC
:0E0A9E000FD5F0DAE4CDFBE4CCFAE4C8F9227F
:00000001FF
