:03000000020800F3
:0C080000787FE4F6D8FD758139020847C6
:1008C300203208FFFEFDFBF7EFDFBF7F7FBFDFEFC7
:1008D300F7FBFDFEFFFFFEFCFBF0E0C08000E7DB63
:1008E300BD7EFFFF3C180081C3E7FFFF7EBDDBE752
:0508F300BDDB7EFFAA41
:0C098100E4FFE4FE0EBE21FC0FBF0AF6EE
:01098D002247
:02097100AD07D0
:0D097300E4FCECC39D50061209810C80F5D8
:010980002254
:10093100E4FFD2B4FED2B4C2B4EF25E0FFA2B6E424
:070941003342070EBE08EE71
:01094800228C
:0509170012091CAF05F0
:10091C00C2B4E4FEEF3392B5C2B4D2B4EF25E0FF1B
:04092C000EBE08F003
:0109300022A4
:10094900AD07C2B77F0612091CD2B7C2B77F011221
:050959000917D2B722CE
:1008F900AC07C2B4C2B77F0612091CD2B7C2B77F10
:0E09090002120917AF0412091CD2B7C2B422A1
:02095E00AD07E3
:10096000C2B4C2B77F03120917120931D2B7C2B499
:010970002264
:07098E00D2B7C2B7D2B722B5
:10088C007F121209497F0A120971E4FB74082BF8D4
:10089C00E6FFAD031208F97F0A1209710BBB32ECAB
:1008AC00E4FBAF0312095E8F907F64120971120989
:0708BC008E0BBB32ED80E959
:10080C0002088CE493A3F8E493A34003F68001F26E
:10081C0008DFF48029E493A3F85407240CC8C333ED
:10082C00C4540F4420C8834004F456800146F6DFBC
:10083C00E4800B01020408102040809008C3E47E81
:10084C00019360BCA3FF543F30E509541FFEE493B1
:10085C00A360010ECF54C025E060A840B8E493A378
:10086C00FAE493A3F8E493A3C8C582C8CAC583CAA3
:10087C00F0A3C8C582C8CAC583CADFE9DEE780BE5B
:0108F80000FF
:00000001FF
