:030000000209876B
:0C098700787FE4F6D8FD75812002087E20
:0B09930030313233343536373839004C
:0C096D00E4FFE4FE0EBE21FC0FBF0AF602
:01097900225B
:02093F00AD0702
:0D094100E4FCECC39D500612096D0C80F51E
:01094E002286
:10090100C2A0D2A1D2A200000000A2879200C2A27E
:05091100A200E433FF29
:0109160022BE
:07082E007F0512093F7F382E
:10083500AE07120901EF640160F8C2A0C2A1C2A20D
:1008450000008E8000000000D2A200000000C2A2BD
:010855002280
:07099E00EF4480FF02083561
:1008C600AE07120901EF640160F8D2A0C2A1C2A26C
:0F08D6008E8000000000D2A200000000C2A2220B
:100800007F0F12083012082E12082E7F0512093FA2
:100810007F0C1208357F0512093F7F061208357FCD
:0E0820000512093F7F011208357F0502093FCE
:1008A500EF75F00A84FDEF75F00A84ACF07F441211
:1008B500099EED90099393FF1208C6EC93FF020879
:0108C500C66C
:0F094F00D2B4D2B30000C2B400000000C2B32281
:0D097A00C2B40000D2B300000000D2B422CD
:10091700E4FED2B3EF25E0FFA2B4E4334207C2B34B
:040927000EBE08EE0A
:01092B0022A9
:10085600E4FEEF3392B400D2B30000C2B3EF25E05A
:10086600FF0EBE08EDD2B40000D2B300000000A215
:07087600B49200C2B3A2001E
:01087D002258
:1008E500AC0712094F7FA0120856AF04120856AF85
:0C08F5000512085612097A7F0402093F20
:0E095E0012094F7FA112085612091712097ACA
:01096C002268
:10092C00AD0712094F7FA0120856AF0512085612D8
:03093C00095E222F
:10087E00120800E4FB20940E7F5012093F209401D1
:10088E000BBB6302E4FBAD037F011208E57F01128F
:07089E00092C1208A580DE01
:00000001FF
