:0C08D900E4FFE4FE0EBE21FC0FBF0AF697
:0108E50022F0
:0208C900AD0779
:0D08CB00E4FCECC39D50061208D90C80F52A
:0108D80022FD
:10088700E4FFD2B4FED2B4C2B4EF25E0FFA2B6E4CF
:070897003342070EBE08EE1C
:01089E002237
:07086B007F02120872AF05C5
:10087200C2B4E4FEEF3392B5C2B4D2B4EF25E0FFC6
:040882000EBE08F0AE
:01088600224F
:10082F00AC07D2B3C2B4C2B77F06120872D2B7C236
:0E083F00B712086BAF04120872D2B7C2B4220F
:10084D00AC07D2B7C2B4C2B37F06120872D2B3C21C
:0E085D00B312086BAF04120872D2B3C2B422F9
:02089F00AD07A3
:1008A100D2B3C2B4C2B77F0312086D120887D2B7A0
:0208B100C2B4CF
:0108B3002222
:0208B400AD078E
:1008B600D2B7C2B4C2B37F0312086D120887D2B38F
:0208C600C2B4BA
:0108C800220D
:0708F200D2B7C2B7D2B72252
:0708F900D2B3C2B3D2B32257
:100800007D107FF012082F7F0A1208C97F1012088E
:100810009F7D2012084D7F0A1208C97F201208B45C
:0F0820008F907F641208C91208F21208F980D174
:030000000208E60D
:0C08E600787FE4F6D8FD75810702080059
:00000001FF
