:03000000020128D2
:0C012800787FE4F6D8FD7581200200030A
:0C011B00E4FFE4FE0EBE21FC0FBF0AF65C
:0101270022B5
:02010B00AD073E
:0D010D00E4FCECC39D500612011B0C80F5B4
:01011A0022C2
:1000F500C2A0D2A1D2A200000000A2879200C2A293
:05010500A200E433FF3D
:01010A0022D2
:0700AE007F0512010B7F38F2
:1000B500AE071200F5EF640160F8C2A0C2A1C2A2AA
:1000C50000008E8000000000D2A200000000C2A245
:0100D5002208
:07013400EF4480FF0200B55B
:1000D600AE071200F5EF640160F8D2A0C2A1C2A279
:0F00E6008E8000000000D2A200000000C2A22203
:100080007F0F1200B01200AE1200AE7F0512010BFE
:100090007F0C1200B57F0512010B7F061200B57FA1
:0E00A0000512010B7F011200B57F0502010B56
:100003001200807F021201347F481200D67F031250
:1000130001347F451200D67F041201347F4C120055
:10002300D67F051201347F4C1200D67F06120134AD
:100033007F4F1200D67F071201347F201200D67F34
:10004300081201347F571200D67F091201347F4F03
:100053001200D67F0A1201347F521200D67F0B1290
:1000630001347F4C1200D67F0C1201347F441200FE
:0D007300D67F0D1201347F211200D6808649
:00000001FF
