:03000000020140BA
:0C014000787FE4F6D8FD75812002007184
:0C012600E4FFE4FE0EBE21FC0FBF0AF651
:0101320022AA
:02010700AD0742
:0D010900E4FCECC39D50061201260C80F5AD
:0101160022C6
:0F011700D2B3D2B40000C2B400000000C2B322C1
:0D013300C2B40000D2B300000000D2B4221C
:1000CA00E4FED2B3EF25E0FFA2B4E4334207C2B3A1
:0400DA000EBE08EE60
:0100DE0022FF
:10000300E4FEEF3392B400D2B30000C2B3EF25E0B5
:10001300FF0EBE08EDD2B40000D2B300000000A270
:07002300B49200C2B3A20079
:01002A0022B3
:10002B00AC071201177FA01200035016AF04120089
:10003B0003500FAF0512000350081201337F041257
:03004B0001072288
:10004E00AC071201177FAE1200035016AF04120058
:10005E0003500FAF0512000350081201337F041234
:03006E0001072265
:1000DF001201177FA112000350037F00221200CAE2
:0300EF00120133C8
:0100F20022EB
:1000F3001201177FAF12000350037F00221200CAC0
:03010300120133B3
:0101060022D6
:10009200AD071201177FA0120003400DAF05120039
:0C00A2000340030200DF7FFF227FFF22EB
:1000AE00AD071201177FAE120003400DAF0512000F
:0C00BE000340030200F37F00227F0022B9
:05014C00D2B3D2B42281
:1000710012014C7DAA7F3612002B7F36120092AD01
:10008100077F4812004E7F481200AE8F90E4FEFFBA
:01009100224C
:00000001FF
