:0300000002044BAC
:0C044B00787FE4F6D8FD7581200202CB1A
:10042E0030313233343536373839566F6C743D00CF
:0C043E00E4FFE4FE0EBE21FC0FBF0AF636
:01044A00228F
:02040E00AD0738
:0D041000E4FCECC39D500612043E0C80F588
:01041D0022BC
:1003FB00C2A0D2A1D2A200000000A2879200C2A28A
:02040B00A2004D
:01040D0022CC
:070387007F0512040E7F3810
:10038E001203FB40FBC2A0C2A1C2A200008F8000DC
:0C039E00000000D2A200000000C2A22259
:07046B00EF4480FF02038E45
:1003CB001203FB40FBD2A0C2A1C2A28F800000008F
:0A03DB0000D2A200000000C2A2221E
:10035A007F0F1203891203871203877F0512040E87
:10036A007F0C12038E7F0512040E7F0612038E1F66
:0D037A0012040E7F0112038E7F0502040E97
:1003E5007F0312046BE4FEEE90043893FF6006125F
:0503F50003CB0E80F2B5
:0103FA0022E0
:0A0457007F0912046B7F2E0203CB15
:0A0461007F0C12046B7F560203CBE0
:10041E00AE077F0812046BEE90042E93FF0203CBFF
:1003AA00EF75F00A84FEEF75F00A84ADF07F0A1249
:1003BA00046BEE90042E93FF1203CBED93FF02031E
:0103CA00CB67
:10032900D2B4C290C2B4D291D290C290D291D2909A
:10033900C290C291D290C290D291E4FED290C29062
:10034900EF25E0FFA291E43342070EBE08EED2B4D6
:010359002281
:1002CB0012035A7F0512040E1203E512045712048F
:1002DB00611203297508008F09AE087C007D33126B
:1002EB0002688F0AAE08AF097C007D33120268E406
:1002FB001201AE7BCD7ACC799C7841120003E4FBE2
:10030B00FA7920784112010C1201E7AB07AF0A1200
:0E031B00041EAF031203AA7FFA12040E80B371
:10000300EC4D6011E8497017ED33EC3304600DE4F7
:10001300FCFFFEFD22E933E8330470F802025312B9
:10002300021E58046009E4CC2481500628500902BA
:10003300025D28400302025AC0E0EB4A7044B980D3
:1000430006D0E0FB020249EF4E701CBD8008EBFFB7
:10005300EAFEE9FD80EBE98DF0A4FEE5F00200EC99
:10006300E9CDF9EAFEEBFFEF89F0A4FCE5F0CE89D8
:10007300F0A42EFFE435F0CD89F0A42DFEE435F095
:100083008067EF4E7005BD80D780C3EF8BF0A4ACC3
:10009300F0EE8BF0A42CFCE435F0F8EF8AF0A42CFE
:1000A300E5F038FCE433CB8DF0A42CFCE5F03BF811
:1000B300EE8AF0A42CFCE5F038F8E433CF89F0A401
:1000C3002CFCE5F038CF3400CE89F0A42FFFE5F007
:1000D3003EFEE433C98DF0A42EFEE5F039CD8AF05F
:1000E300A42FFFE5F03EFEE43DFD33D0E0FB5007D7
:1000F3000BBB000F02025DEC2CFCEF33FFEE33FE73
:06010300ED33FD020235A0
:1001090002025DEC5D046005E859047003020253C4
:1001190012021E580460F6EC4860F2EC7004FDFE11
:10012900FF22C860DB2481C85009C39860025006C9
:1001390002025A9850CAF582E9294B4A7005AB82E6
:1001490002024975F0007C1A7880C3EF9BEE9AEDA4
:1001590099400DC3EF9BFFEE9AFEED99FDE842F041
:10016900DC23ACF0D0E0FFD0E0FED0E0FDAB822094
:10017900E7101BEB60BAEC2CFCEF33FFEE33FEED1E
:1001890033FD020235E803F830E705C0F075F000E9
:10019900EF2FFFEE33FEED33FD40B830E7C280AA02
:1001A90075F020800E75F010800575F0087D007ED1
:1001B900007F003392D530D5031202BDEC334010D5
:1001C900EF33FFEE33FEED33FDEC33FCD5F0ED22DA
:0E01D900E5F0247EA2D513CC92E7CDCEFF2216
:1001E700EDD2E7CD33EC3392D524814006E4FFFE10
:1001F700FDFC22FCE4CFCECDCC24E0501174FF806F
:10020700EDC3CC13CCCD13CDCE13CECF13CF04700B
:07021700F030D5DE0202BD4C
:10021E00E9D2E7C933E833F892D5EDD2E7CD33EC26
:07022E0033FC5002B2D5229F
:10023500EC30E7100FBF000C0EBE00080DBD00042A
:100245000BEB6014A2D5EB13FCED92E7FD2274FFD6
:10025500FCFDFEFF22E480F8A2D574FF13FC7D802F
:03026500E480EF43
:10026800BC000BBE0029EF8DF084FFADF022E4CC7A
:10027800F875F008EF2FFFEE33FEEC33FCEE9DEC43
:10028800984005FCEE9DFE0FD5F0E9E4CEFD22ED89
:10029800F8F5F0EE8420D21CFEADF075F008EF2FD3
:1002A800FFED33FD4007985006D5F0F222C398FDC4
:0502B8000FD5F0EA2261
:0E02BD00C3E49FFFE49EFEE49DFDE49CFC2252
:00000001FF
