:030000000200BA41
:0C00BA00787FE4F6D8FD75810702000392
:0C00AD00E4FFE4FE0EBE21FC0FBF0AF6CB
:0100B9002224
:02009D00AD07AD
:0D009F00E4FCECC39D50061200AD0C80F592
:0100AC002231
:10005D00E4FFD2B4FED2B4C2B4EF25E0FFA2B6E401
:07006D003342070EBE08EE4E
:010074002269
:05004300120048AF05AA
:10004800C2B4E4FEEF3392B5C2B4D2B4EF25E0FFF8
:040058000EBE08F0E0
:01005C002281
:10007500AD07C2B77F06120048D2B7C2B77F0112DB
:050085000043D2B72288
:10002500AC07C2B4C2B77F06120048D2B7C2B77FC9
:0E00350002120043AF04120048D2B7C2B42238
:02008A00AD07C0
:10008C00C2B4C2B77F0312004312005DD2B7C2B430
:01009C002241
:0700C600D2B7C2B7D2B72286
:100003007F121200757F0A12009D7D107FAA1200D5
:10001300257F0A12009D7F1012008A8F901200C65E
:0200230080E873
:00000001FF
