:030000000200F506
:0C00F500787FE4F6D8FD7581100200CF82
:0A010100C0F9A4B0999282F8809032
:06000300E4FF0FBFC8FC82
:0100090022D4
:1000A600AE0775A0BFEE75F00A8490010193F58046
:1000B60012000375A07FEE75F00A84E5F093F580D3
:0900C600120003E4F5A0F580220C
:0C00E800E4FFE4FE0EBE3CFC0FBF64F61B
:0100F40022E9
:1000CF00D2AFD2A9758901758CFE758A0CD28CE4DA
:0900DF00F510AF101200A680F923
:03000B0002000EE2
:10000E00C0E0C0D075D008C28C7590F0E59054F069
:10001E0064F060031200E8E59054F064F0606C75D3
:10002E0090FE209403751001209503751002209602
:10003E00037510032097037510047590FD2094032B
:10004E007510052095037510062096037510072070
:10005E0097037510087590FB209403751009209571
:10006E000375100A20960375100B20970375100C5C
:10007E007590F720940375100D20950375100E20C2
:10008E00960375100F209703751010D28C758CFE89
:08009E00758A0CD0D0D0E032CD
:00000001FF
