:0A08ED00C0F9A4B0999282F880903F
:0608F700E4FF0FBFC8FC86
:0108FD0022D8
:10089800AE0775A0BFEE75F00A849008ED93F58059
:1008A8001208F775A07FEE75F00A84E5F093F580DD
:0308B8000208F73C
:0C08D400E4FFE4FE0EBE3CFC0FBF64F627
:0108E00022F5
:1008BB00D2AFD2A9758901758CFE758A0CD28CE4E6
:0908CB00F510AF1012089880F935
:03000B00020800E8
:10080000C0E0C0D075D008C28C7590F0E59054F06F
:1008100064F060031208D4E59054F064F0606C75E5
:1008200090FE209403751001209503751002209608
:10083000037510032097037510047590FD20940331
:100840007510052095037510062096037510072076
:1008500097037510087590FB209403751009209577
:100860000375100A20960375100B20970375100C62
:100870007590F720940375100D20950375100E20C8
:10088000960375100F209703751010D28C758CFE8F
:08089000758A0CD0D0D0E032D3
:030000000208E112
:0C08E100787FE4F6D8FD7581100208BB9A
:00000001FF
