:030000000201C337
:0C01C300787FE4F6D8FD75812002000E64
:10013A00303132333435363738390074696D6520D9
:0B014A00696E206265696A696E6700DB
:0C01A900E4FFE4FE0EBE21FC0FBF0AF6CE
:0101B5002227
:02019900AD07B0
:0D019B00E4FCECC39D50061201A90C80F598
:0101A8002234
:10018300C2A0D2A1D2A200000000A2879200C2A204
:05019300A200E433FFAF
:010198002244
:0700D0007F051201997F3842
:1000D700AE07120183EF640160F8C2A0C2A1C2A2F9
:1000E70000008E8000000000D2A200000000C2A223
:0100F70022E6
:0601B60075F00A84ACF0B4
:0701BC00EF4480FF0200D7B1
:0600F800ED90013A93FFB8
:1000FE00AE07120183EF640160F8D2A0C2A1C2A2C2
:0F010E008E8000000000D2A200000000C2A222DA
:1000A2007F0F1200D21200D01200D07F05120199E8
:1000B2007F0C1200D77F051201997F061200D77FAD
:0E00C200051201997F011200D77F05020199F6
:10015500E50975F00A84FDE5097F441201B6120030
:07016500F8EC93FF0200FE1D
:10016C00E50A75F00A84FDE50A7F471201B6120014
:07017C00F8EC93FF0200FE06
:10011D00E50B75F00A84FDE50B75F00A84ACF07FF4
:0D012D004A1201BC1200F8EC93FF0200FE24
:10000E001200A2758901758C4B758AFDD2AFD2A9EB
:10001E00D28CE4F508F50BF50AF509FF1201BCE4E4
:10002E00FDED90014593FF60061200FE0D80F27FFC
:10003E00461201BC7F3A1200FE7F491201BC7F3A84
:10004E001200FE1201557F0512019912016C7F05F7
:0D005E0012019912011D7F0512019980E623
:03000B0002006B85
:10006B00C0E0C0D00508E508B41405750800050B01
:10007B00E50BB43C05750B00050AE50AB43C0575A8
:10008B000A000509E509B41803750900758C4B7551
:07009B008AFDD0D0D0E03255
:00000001FF
