:03000000020914DE
:0C091400787FE4F6D8FD758120020828E9
:0C090700E4FFE4FE0EBE21FC0FBF0AF668
:0109130022C1
:0208BA00AD0788
:0D08BC00E4FCECC39D50061209070C80F50A
:0108C900220C
:1008CA00D2B4D2B30000C2B400000000C2B3002206
:0F08DA00C2B40000D2B3000000000000D2B4226C
:10087F00E4FED2B3EF25E0FFA2B4E4334207C2B3E4
:04088F000EBE08EEA3
:010893002242
:10080000E4FEEF3392B400D2B30000C2B3EF25E0B0
:10081000FF0EBE08EDD2B40000D2B300000000A26B
:07082000B49200C2B3A20074
:0108270022AE
:10084700AC071208CA7FA0120800AF04120800AF55
:0C085700051208001208DA7F040208BA3B
:10086300AC071208CA7FAE120800AF04120800AF2B
:0C087300051208001208DA7F040208BA1F
:0E08E9001208CA7FA112080012087F1208DA56
:0108F70022DE
:0E08F8001208CA7FAF12080012087F1208DA39
:0109060022CE
:10089400AD071208CA7FA0120800AF0512080012A3
:0308A40008E9223E
:1008A700AD071208CA7FAE120800AF051208001282
:0308B70008F8221C
:10082800D2B4D2B37DAA7F361208477F3612089415
:0E083800AD077F481208637F481208A78F9013
:01084600228F
:00000001FF
