:030000000203EA0E
:0C03EA00787FE4F6D8FD75812002010048
:10000E00024B0293024B020B01B8020B01B801889E
:10001E000137018801B8020B01B8020B03100370FF
:10002E0002930310024B0293024B029303100293AE
:10003E0001880137018801B8020B01B801B8020B23
:10004E0001B80188011E01370188024B024B0310D3
:10005E000370031002BA029303100293037003108D
:10006E000293024B029301B8020B024B0293024B16
:10007E0002930310029301880137018801B8020B25
:10008E0001B8020B024B01B8020B024B0293024B5A
:10009E0001B8020B024B01B8020B024B0293024B4A
:1000AE00000004010104010102020202020804021E
:1000BE00030102020A040202040402020202040202
:1000CE000202020202020A040404020204020404EE
:1000DE00040202020202020A0402020404020202E2
:1000EE000206040202040101040A040202040101D0
:0200FE00040AF2
:0C03C300E4FFE4FE0EBEFAFC0FBFFAF6E9
:0103CF00220B
:0C03D000E4FFE4FE0EBE21FC0FBF0AF6A5
:0103DC0022FE
:02039500AD07B2
:0D039700E4FCECC39D50061203D00C80F571
:0103A4002236
:0F03A500D2B4D2B30000C2B400000000C2B32231
:0D03DD00C2B40000D2B300000000D2B42270
:10036D00E4FED2B3EF25E0FFA2B4E4334207C2B3FB
:04037D000EBE08EEBA
:010381002259
:10032200E4FEEF3392B400D2B30000C2B3EF25E093
:10033200FF0EBE08EDD2B40000D2B300000000A24E
:07034200B49200C2B3A20057
:010349002291
:10034A00AC071203A57FA01203224016AF041203C2
:10035A0022400FAF0512032240081203DD7F041268
:03036A00039522D6
:0E03B4001203A57FA112032212036D1203DDB6
:0103C2002218
:10038200AD071203A57FA0120322AF0512032212AA
:0303920003B4228F
:05000300D2B3D2B422CB
:10010000D2AFD2A9E4F589120003F510E51025E07D
:10011000240EF582E43400F583E493FE740193FF2A
:100120004E6016EF7803CEC313CE13D8F9F511FD48
:10013000AF1012034A051080D3851013E4F510E5C3
:100140001025E0240EF582E43400F58374019370E9
:1001500002E4936013E5132510FFE5109000B093BF
:10016000FD12034A051080D7E4F510E510C395137E
:100170005060AF101203828F11E5132510FF120398
:10018000828F12E51175F008A4AEF0FBAA06E4F91F
:10019000F87F1E7E087D07FC1202B38E148F15C3F4
:1001A000E49515FD74209514FCEDAE047805CEC3DE
:1001B00013CE13D8F9F58CED541FF58AD28CE4FDDB
:1001C000EDC3951250061203C30D80F4C28C0510C6
:1001D0008099D2B7E4F510E510C39408508A120351
:0501E000C3051080F2D0
:03000B000202F7F7
:1002F700C0E0C0D075D008B2B7C3E49515FD74202F
:100307009514FCEDAE0C7805CEC313CE13D8F9F5D2
:0B0317008CED541FF58AD0D0D0E032EE
:1002B300C2D5E830E70FB2D5E4C39BFBE49AFAE476
:1002C30099F9E498F8EC30E717B2D51202E9120273
:1002D30021E4C39BFBE49AFAE499F9E498F88003D8
:1002E30012022130D50DE4C39FFFE49EFEE49DFD81
:0402F300E49CFC2269
:1001E50075F008758200EF2FFFEE33FECD33CDCCD1
:1001F50033CCC58233C5829BED9AEC99E582984054
:100205000CF582EE9BFEED9AFDEC99FC0FD5F0D630
:10021500E4CEFBE4CDFAE4CCF9A88222B800C1B95A
:100225000059BA002DEC8BF084CFCECDFCE5F0CB98
:10023500F97818EF2FFFEE33FEED33FDEC33FCEBD1
:1002450033FB10D703994004EB99FB0FD8E5E4F98C
:10025500FA227818EF2FFFEE33FEED33FDEC33FC79
:10026500C933C910D7059BE99A4007EC9BFCE99A6D
:10027500F90FD8E0E4C9FAE4CCFB2275F010EF2FB2
:10028500FFEE33FEED33FDCC33CCC833C810D707B2
:100295009BEC9AE899400AED9BFDEC9AFCE899F8ED
:0E02A5000FD5F0DAE4CDFBE4CCFAE4C8F92280
:00000001FF
