:03000000020AFCF5
:0C0AFC00787FE4F6D8FD75812002080028
:0A0B130030313233343536373839CB
:0A0B0800E4FEEEC39F50030E80F8D8
:010B120022C0
:02095100AD07F0
:10095300C2907F02120B08E4FBED1392917F021207
:100963000B08D290120B08C290EDC313FD0BBB080A
:01097300E89B
:010974002260
:100A5C00AC05AD07C292C290D2927F02120B08AFC6
:0E0A6C0005120951AF04120951D290C2922214
:100975007F02120B08E4FCEDC313FD309103430520
:1009850080D2907F02120B08C290120B080CBC0893
:03099500E6AF05C5
:01099800223C
:100AC100C292C290D292120951120975D290C29269
:010AD1002202
:1008F300E4FD7F8E120A5CE4FD7F80120A5CE4FD56
:100903007F82120A5C7D127F84120A5C7D167F86C9
:10091300120A5C7D117F88120A5C7D087F8C020AB3
:010923005C77
:0C0AE200E4FFE4FE0EBE21FC0FBF0AF68C
:010AEE0022E5
:020AD200AD076E
:0D0AD400E4FCECC39D5006120AE20C80F514
:010AE10022F2
:100AAE00C2A0D2A1D2A200000000A2879200C2A2D0
:020ABE00A20094
:010AC0002213
:070999007F05120AD27F382E
:1009A000120AAE40FBC2A0C2A1C2A200008F80000A
:0C09B000000000D2A200000000C2A22241
:060AEF0075F00A84ADF071
:070AF500EF4480FF0209A09D
:0609BC00EE900B1393FF07
:1009C200120AAE40FBD2A0C2A1C2A28F80000000D8
:0A09D20000D2A200000000C2A22221
:100924007F0F12099B1209991209997F05120AD2A5
:100934007F0C1209A07F05120AD27F061209A01F9C
:0D094400120AD27F011209A07F05020AD21B
:100A7A00EF75F00A84FEEF7F49120AEF1209BCED06
:0A0A8A0093FF1209C27F32020AD264
:100A9400EF75F00A84FEEF7F46120AEF1209BCEDEF
:0A0AA40093FF1209C27F32020AD24A
:1009DC00EF75F00A84FEEF75F00A84ADF07F4312D8
:1009EC000AF51209BCED93FF1209C27F32020AD23A
:1009FC00EF75F00A84FEEF75F00A84ADF07F0C12EF
:100A0C000AF51209BCED93FF1209C27F32020AD219
:100A1C00EF75F00A84FEEF75F00A84ADF07F0912D1
:100A2C000AF51209BCED93FF1209C27F32020AD2F9
:100A3C00EF75F00A84FEEF75F00A84ADF07F0612B4
:100A4C000AF51209BCED93FF1209C27F32020AD2D9
:100800001209247F01120AF57F441209C27F611286
:1008100009C27F741209C27F651209C27F3A1209A8
:10082000C27F08120AF57F2D1209C27F0B120AF54A
:100830007F2D1209C27F45120AF57F3A1209C27F45
:1008400048120AF57F3A1209C21208F37F81120A90
:10085000C1AB07EB5470C4540F75F00AA4FFEB54FE
:100860000F2FF508FF120A7A7F83120AC1AB07EB3C
:100870005470C4540F75F00AA4FFEB540F2FF50900
:10088000FF120A947F85120AC1AB07EB5470C4545F
:100890000F75F00AA4FFEB540F2FF50AFF1209DCC5
:1008A0007F87120AC1AB07EB5470C4540F75F00A6E
:1008B000A4FFEB540F2FF50BFF1209FC7F89120ADE
:1008C000C1AB07EB5470C4540F75F00AA4FFEB548E
:1008D0000F2FFF120A1C7F8D120AC1AB07EB547059
:1008E000C4540F75F00AA4FFEB540F2FFF120A3CFB
:0308F00002084CAF
:00000001FF
