:030000000208B142
:0C08B100787FE4F6D8FD75811102083B49
:0C08A400E4FFE4FE0EBE64FC0FBF96F6FD
:0108B0002225
:06086B001208717580F314
:0E087100E4FFFE0FBF00010EBE07F8BFD0F57A
:01087F002256
:100880007580FC1208717580F612086B7580F9028C
:020890000871ED
:100892007580FC1208717580F912086B7580F6027A
:0208A2000871DB
:0408BD007580FF2221
:10083B00758901D2AFD2A9D28C758CFE758A0CE466
:10084B00F511F510E51124FE600C14600E240270F6
:10085B00F312088080EE12089280E91208BD80E442
:03000B00020800E8
:10080000C0E0C0D075D008C28CE59054F064F060B0
:100810001D1208A4E59054F064F060122094037552
:100820001101209503751102209603751103758C33
:0B083000FF758A38D28CD0D0D0E032A7
:00000001FF
